:100000000C9454000C9471000C9471000C947100C9
:100010000C9471000C9471000C9471000C9471009C
:100020000C9471000C9471000C9471000C9471008C
:100030000C9471000C9471000C94BE040C9471002B
:100040000C9471000C9471000C9471000C9471006C
:100050000C9471000C9471000C9471000C9471005C
:100060000C9471000C947100001F000000001F0030
:10007000001F101010101F00001F181818181F0064
:10008000001F1C1C1C1C1F00001F1E1E1E1E1F000C
:10009000001F1F1F1F1F1F0003070F1F0F07030055
:1000A000181C1E1F1E1C180011241FBECFEFD8E005
:1000B000DEBFCDBF11E0A0E0B1E0E8EAFBE002C0A6
:1000C00005900D92A237B107D9F721E0A2E7B1E080
:1000D00001C01D92AE37B207E1F70E946F020C9487
:1000E000D2050C94000065B1982F9074492F50E010
:1000F00055954795559547955595479555954795E8
:10010000982F9078292F30E0022E232F000C221FE9
:10011000330B000C221F331F962F997F492B242B62
:1001200025B968B1982F9071492F50E055954795A2
:100130005595479555954795982F9072292F30E002
:10014000359527953595279535952795962F997F40
:10015000492B242B28B99BB192609BB99BB191602C
:100160009BB925ED2A95F1F700009BB19E7F9BB9C5
:100170009BB19D7F9BB995ED9A95F1F7000065B114
:1001800020E1829FC0011124AC0140745527559590
:1001900047955595479555954795559547959C0194
:1001A00020783327022E232F000C221F330B000C44
:1001B000221F331F362F397F432B242B25B948B1FB
:1001C0009C012071332735952795359527953595D1
:1001D00027958072992795958795959587959595FB
:1001E0008795942F997F292B822B88B98BB18260B8
:1001F0008BB98BB181608BB985ED8A95F1F70000E1
:100200008BB18E7F8BB98BB18D7F8BB995ED9A9524
:10021000F1F70000089565B1982F9074492F50E0D0
:1002200055954795559547955595479555954795B6
:10023000982F9078292F30E0022E232F000C221FB8
:10024000330B000C221F331F962F997F492B242B31
:1002500025B968B1982F9071492F50E05595479571
:100260005595479555954795982F9072292F30E0D1
:10027000359527953595279535952795962F997F0F
:10028000492B242B28B99BB191609BB9EFE9FFE082
:100290003197F1F700C000009BB19E7F9BB9EFE959
:1002A000FFE03197F1F700C0000065B1F0E18F9FEA
:1002B000C0011124AC0140745527559547955595BB
:1002C000479555954795559547959C012078332737
:1002D000022E232F000C221F330B000C221F331F72
:1002E000362F397F432B242B25B948B19C0120712F
:1002F0003327359527953595279535952795807220
:100300009927959587959595879595958795942F98
:10031000997F292B822B88B98BB181608BB98FE9AA
:100320009FE00197F1F700C000008BB18E7F8BB981
:10033000EFE9FFE03197F1F700C0000008950F9357
:100340001F93CF93DF93009769F0D62F8C01C0E005
:1003500007C0F801EC0FF11D80810E947300CF5F90
:10036000CD17B8F3DF91CF911F910F9108956230AF
:1003700031F0633031F0613029F4805C03C08C5E71
:1003800001C08C5A80680E940B010895EF92FF9281
:100390000F931F93CF93DF937C01862F90E0880FFC
:1003A000991F880F991F880F991F8064C0E0D0E0C3
:1003B0000DC0F701EC0FFD1F149101E0080F0E9422
:1003C0000B01812F0E9473002196802FC830D10528
:1003D00080F3DF91CF911F910F91FF90EF900895DF
:1003E000CF93DF938FE59AEE0197F1F700C00000FD
:1003F00085B1897F85B988B1897F88B91BB887B1F4
:10040000866087B984B1866084B984B1866084B916
:1004100087B1866087B98AB183608AB985B1897FDF
:1004200085B988B1866088B98BB181608BB98FE955
:100430009FE00197F1F700C000008BB18E7F8BB970
:100440008FE99FE00197F1F700C0000085B1897F37
:1004500085B988B1866088B98BB181608BB98FE925
:100460009FE00197F1F700C000008BB18E7F8BB940
:100470008FE99FE00197F1F700C0000085B1897F07
:1004800085B988B1897F846088B98BB181608BB967
:100490008FE99FE00197F1F700C000008BB18E7FDC
:1004A0008BB98FE99FE00197F1F700C0000088E267
:1004B0000E940B018CE00E940B0160E0C0E00AC0CA
:1004C000D1E0D60F8C2F90E088599F4F0E94C60133
:1004D000C85F6D2FC034A0F3DF91CF9108950E94C3
:1004E000F0010E943A040E947A020E94AC040E9429
:1004F000BF02FDCF10927C0110927B0108951092F3
:10050000750120E011C0E22FF0E0EE58FE4F90811F
:1005100080917501880F382F330F330F830F890FA8
:100520008053809375012F5F223068F380917501AD
:10053000843610F080E0089581E008958DE791E021
:100540000E944A048823D1F080917D0190ED980F9C
:100550009A3050F4E091760191E09E0F90937601ED
:10056000F0E0EE58FE4F808380917601823029F4CE
:10057000109276010E947F02089580E00895CF9343
:10058000DF93CDB7DEB729970FB6F894DEBF0FBE65
:10059000CDBF80917B018F5F80937B0190917C0127
:1005A000913039F138F0923009F44FC0933009F4AA
:1005B000B6C0DFC010927B0160E080E00E94B7010E
:1005C0006AE084E091E00E949F0161E080E00E9487
:1005D000B70160E18FE091E00E949F018DE791E01B
:1005E0000E944A04882309F4C4C081E080937C01FE
:1005F000C0C080917D01813499F40E94370490E05D
:100600000E9473050E946E0564E670E00E94EB0490
:10061000809374010E94C20382E080937C01A9C090
:1006200060E080E00E94B7016AE080E291E00E9411
:100630009F012FEF8BE792E9215080409040E1F736
:1006400000C0000010927C0194C0813009F091C07C
:1006500060E080E00E94B7016AE08BE291E00E94D6
:100660009F0161E080E00E94B70160E186E391E0D4
:100670000E949F010E949E02813009F049C0909122
:10068000750180917401981304C083E080937C010C
:1006900070C08917E8F461E08CE00E94B70162E065
:1006A00082E791E00E949F0161E08EE00E94B70125
:1006B0008EE30E9473002FEF83ED90E32150804082
:1006C0009040E1F700C0000082E080937C0151C0BF
:1006D000981708F04EC061E08CE00E94B70162E01C
:1006E00082E791E00E949F0161E08EE00E94B701E5
:1006F0008CE30E9473002FEF83ED90E32150804044
:100700009040E1F700C0000082E080937C0131C09E
:1007100080917D01843469F510927C012AC060E0EB
:1007200080E00E94B7016AE087E491E00E949F01A7
:10073000CE0101960E94E30361E089E00E94B701C7
:1007400066E082E591E00E949F0161E080E00E9406
:10075000B70169E0CE0101960E949F012FEF8BE760
:1007600092E9215080409040E1F700C000001092D3
:100770007C0129960FB6F894DEBF0FBECDBFDF9186
:10078000CF9108951092790110927801109277011B
:100790000895809179018F5F80937901843639F4CF
:1007A00010927901809178018F5F80937801809118
:1007B00078018C3339F410927801809177018F5F42
:1007C000809377010895FC01909177012DEC929F21
:1007D000812D112486958695869530E3380F3083D8
:1007E000880F382F330F330F830F981B905D918341
:1007F0004AE3428390917801929F812D112486953E
:100800008695869530E3380F3383880F382F330F62
:10081000330F830F981B905D94834583309179014A
:1008200099E2399F912D112492959F7080E3890F51
:100830008683432F50E0BA01A4E69A9F601971099C
:100840001124CB016AE070E00E94EB04605D6783D5
:10085000329F212D1124269526952695220F822F31
:10086000880F880F280F321B305D308708958091E4
:100870007901089584B1867E84B98AB183748AB976
:1008800085B1896185B98BB180688BB98BB18C6377
:100890008BB90895CF93DC01C0E058C084B1867E47
:1008A00084B98AB183748AB98AB16C2F70E0FB0174
:1008B000E65AFE4F21E030E0008002C0220F331FD5
:1008C0000A94E2F7822B8AB98BB1209528232BB9A1
:1008D00090E01DC023B1492F50E0FA01E25AFE4FCB
:1008E00030E0008002C0359527950A94E2F720FD9C
:1008F0000DC0440F551F440F551F4E595E4FFA014E
:10090000E60FF71F80818C9381E024C09F5F9330B6
:1009100008F34F9907C0FB01EE59FE4F84858C9375
:1009200081E018C02AB1FB01E65AFE4F81E090E059
:10093000008002C0880F991F0A94E2F7982F9095C3
:1009400092239AB99BB1892B8BB9CF5FC43008F43D
:10095000A5CF80E0CF910895EEE6F0E080818D7F15
:10096000808384B5826084BD85B5846085BD16BCF6
:1009700089EF87BD82E08083789408951F920F925B
:100980000FB60F9211242F933F934F935F936F9362
:100990007F938F939F93AF93BF93EF93FF93809138
:1009A0007A018F5F80937A018A3011F410927A0174
:1009B0000E94C903FF91EF91BF91AF919F918F91D9
:1009C0007F916F915F914F913F912F910F900FBE4B
:1009D0000F901F90189597FB072E16F4009407D0E0
:1009E00077FD09D00E940E0507FC05D03EF49095D6
:1009F00081959F4F0895709561957F4F0895A29FAF
:100A0000B001B39FC001A39F700D811D1124911DE2
:100A1000B29F700D811D1124911D0895AA1BBB1B4F
:100A200051E107C0AA1FBB1FA617B70710F0A61BEE
:100A3000B70B881F991F5A95A9F780959095BC010F
:100A4000CD0108958F929F92AF92BF92CF92DF9285
:100A5000EF92FF92CF93DF93EC01688179818A81D5
:100A60009B81611571058105910521F464E279EDA1
:100A70008BE597E02DE133EF41E050E00E947E05E9
:100A800049015A019B01AC01A7EAB1E40E949D050E
:100A90006B017C01ACEEB4EFA50194010E94AB05A3
:100AA000DC01CB018C0D9D1DAE1DBF1DB7FF03C02A
:100AB0000197A109B04888839983AA83BB839F7754
:100AC000DF91CF91FF90EF90DF90CF90BF90AF90EC
:100AD0009F908F9008950E942205089580E091E0F4
:100AE0000E9422050895A0E0B0E080930001909359
:100AF0000101A0930201B09303010895052E97FB15
:100B00001EF400940E94950557FD07D00E94B00581
:100B100007FC03D04EF40C94950550954095309504
:100B200021953F4F4F4F5F4F089590958095709559
:100B300061957F4F8F4F9F4F08950E94FF04A59F9F
:100B4000900DB49F900DA49F800D911D11240895C8
:100B5000B7FF0C949D050E949D05821B930B089581
:100B6000A1E21A2EAA1BBB1BFD010DC0AA1FBB1FB1
:100B7000EE1FFF1FA217B307E407F50720F0A21B23
:100B8000B30BE40BF50B661F771F881F991F1A9490
:100B900069F760957095809590959B01AC01BD01BA
:080BA000CF010895F894FFCF86
:100BA800010000004249454E56454E49444F005009
:100BB8002F204A554741522050554C53452041005B
:100BC8002020204572726F7220200020204A55474D
:100BD800414E444F2000494E4752455345204E55FB
:100BE8004D202020202000202047414E41444F52D4
:100BF80020002020202020202000030504020403D8
:100C08000007313233413435364237383943302AD8
:020C1800234473
:00000001FF
